{
  "_format": "hh-sol-artifact-1",
  "contractName": "Keyboards",
  "sourceName": "contracts/keyboards.sol",
  "abi": [
    {
      "inputs": [
        {
          "internalType": "enum Keyboards.KeyboardKind",
          "name": "_kind",
          "type": "uint8"
        },
        {
          "internalType": "bool",
          "name": "_isPBT",
          "type": "bool"
        },
        {
          "internalType": "string",
          "name": "_filter",
          "type": "string"
        }
      ],
      "name": "create",
      "outputs": [],
      "stateMutability": "nonpayable",
      "type": "function"
    },
    {
      "inputs": [
        {
          "internalType": "uint256",
          "name": "",
          "type": "uint256"
        }
      ],
      "name": "createdKeyboards",
      "outputs": [
        {
          "internalType": "enum Keyboards.KeyboardKind",
          "name": "kind",
          "type": "uint8"
        },
        {
          "internalType": "bool",
          "name": "isPBT",
          "type": "bool"
        },
        {
          "internalType": "string",
          "name": "filter",
          "type": "string"
        }
      ],
      "stateMutability": "view",
      "type": "function"
    },
    {
      "inputs": [],
      "name": "getKeyboards",
      "outputs": [
        {
          "components": [
            {
              "internalType": "enum Keyboards.KeyboardKind",
              "name": "kind",
              "type": "uint8"
            },
            {
              "internalType": "bool",
              "name": "isPBT",
              "type": "bool"
            },
            {
              "internalType": "string",
              "name": "filter",
              "type": "string"
            }
          ],
          "internalType": "struct Keyboards.Keyboard[]",
          "name": "",
          "type": "tuple[]"
        }
      ],
      "stateMutability": "view",
      "type": "function"
    }
  ],
  "bytecode": "0x608060405234801561001057600080fd5b506109c4806100206000396000f3fe608060405234801561001057600080fd5b50600436106100415760003560e01c806352810aa114610046578063778bc84714610064578063d80ad43114610096575b600080fd5b61004e6100b2565b60405161005b91906106ce565b60405180910390f35b61007e60048036038101906100799190610730565b6101f9565b60405161008d939291906107c5565b60405180910390f35b6100b060048036038101906100ab91906108b9565b6102d5565b005b60606000805480602002602001604051908101604052809291908181526020016000905b828210156101f057838290600052602060002090600202016040518060600160405290816000820160009054906101000a900460ff16600381111561011e5761011d6104bd565b5b60038111156101305761012f6104bd565b5b81526020016000820160019054906101000a900460ff1615151515815260200160018201805461015f9061095c565b80601f016020809104026020016040519081016040528092919081815260200182805461018b9061095c565b80156101d85780601f106101ad576101008083540402835291602001916101d8565b820191906000526020600020905b8154815290600101906020018083116101bb57829003601f168201915b505050505081525050815260200190600101906100d6565b50505050905090565b6000818154811061020957600080fd5b90600052602060002090600202016000915090508060000160009054906101000a900460ff16908060000160019054906101000a900460ff16908060010180546102529061095c565b80601f016020809104026020016040519081016040528092919081815260200182805461027e9061095c565b80156102cb5780601f106102a0576101008083540402835291602001916102cb565b820191906000526020600020905b8154815290600101906020018083116102ae57829003601f168201915b5050505050905083565b600060405180606001604052808660038111156102f5576102f46104bd565b5b8152602001851515815260200184848080601f016020809104026020016040519081016040528093929190818152602001838380828437600081840152601f19601f820116905080830192505050505050508152509050600081908060018154018082558091505060019003906000526020600020906002020160009091909190915060008201518160000160006101000a81548160ff021916908360038111156103a3576103a26104bd565b5b021790555060208201518160000160016101000a81548160ff02191690831515021790555060408201518160010190805190602001906103e49291906103ee565b5050505050505050565b8280546103fa9061095c565b90600052602060002090601f01602090048101928261041c5760008555610463565b82601f1061043557805160ff1916838001178555610463565b82800160010185558215610463579182015b82811115610462578251825591602001919060010190610447565b5b5090506104709190610474565b5090565b5b8082111561048d576000816000905550600101610475565b5090565b600081519050919050565b600082825260208201905092915050565b6000819050602082019050919050565b7f4e487b7100000000000000000000000000000000000000000000000000000000600052602160045260246000fd5b600481106104fd576104fc6104bd565b5b50565b600081905061050e826104ec565b919050565b600061051e82610500565b9050919050565b61052e81610513565b82525050565b60008115159050919050565b61054981610534565b82525050565b600081519050919050565b600082825260208201905092915050565b60005b8381101561058957808201518184015260208101905061056e565b83811115610598576000848401525b50505050565b6000601f19601f8301169050919050565b60006105ba8261054f565b6105c4818561055a565b93506105d481856020860161056b565b6105dd8161059e565b840191505092915050565b60006060830160008301516106006000860182610525565b5060208301516106136020860182610540565b506040830151848203604086015261062b82826105af565b9150508091505092915050565b600061064483836105e8565b905092915050565b6000602082019050919050565b600061066482610491565b61066e818561049c565b935083602082028501610680856104ad565b8060005b858110156106bc578484038952815161069d8582610638565b94506106a88361064c565b925060208a01995050600181019050610684565b50829750879550505050505092915050565b600060208201905081810360008301526106e88184610659565b905092915050565b600080fd5b600080fd5b6000819050919050565b61070d816106fa565b811461071857600080fd5b50565b60008135905061072a81610704565b92915050565b600060208284031215610746576107456106f0565b5b60006107548482850161071b565b91505092915050565b61076681610513565b82525050565b61077581610534565b82525050565b600082825260208201905092915050565b60006107978261054f565b6107a1818561077b565b93506107b181856020860161056b565b6107ba8161059e565b840191505092915050565b60006060820190506107da600083018661075d565b6107e7602083018561076c565b81810360408301526107f9818461078c565b9050949350505050565b6004811061081057600080fd5b50565b60008135905061082281610803565b92915050565b61083181610534565b811461083c57600080fd5b50565b60008135905061084e81610828565b92915050565b600080fd5b600080fd5b600080fd5b60008083601f84011261087957610878610854565b5b8235905067ffffffffffffffff81111561089657610895610859565b5b6020830191508360018202830111156108b2576108b161085e565b5b9250929050565b600080600080606085870312156108d3576108d26106f0565b5b60006108e187828801610813565b94505060206108f28782880161083f565b935050604085013567ffffffffffffffff811115610913576109126106f5565b5b61091f87828801610863565b925092505092959194509250565b7f4e487b7100000000000000000000000000000000000000000000000000000000600052602260045260246000fd5b6000600282049050600182168061097457607f821691505b602082108114156109885761098761092d565b5b5091905056fea264697066735822122045fec50422a8cb990b6f40c5e6c2a9c6bf1f7fceadbae9ee79725d475f83aaf064736f6c63430008090033",
  "linkReferences": {},
  "deployedLinkReferences": {}
}